:04000003000084D99C
:020000040000FA
:10800000005F0020D984000025850000CD9C000081
:1080100000000000000000000000000035FAFDDF55
:108020008F9E939B0B99969701010000B1850000EC
:108030000000000064D80000358600004186000082
:10804000398500003D850000418500004585000020
:10805000218500002185000021850000A1950000F8
:10806000498500004D8500005185000055850000C0
:108070005985000075CC0000618500002185000055
:10808000218500001998000021850000218500004D
:108090002185000021850000218500006585000004
:1080A00081CD000021850000218500002185000090
:1080B0002185000021850000218500002185000028
:1080C000FFFFFFFFFFFFFFFFFFFFFFFFFFFFFFFFC0
:1080D000FFFFFFFFFFFFFFFFFFFFFFFFFFFFFFFFB0
:1080E000FFFFFFFFFFFFFFFFFFFFFFFFFFFFFFFFA0
:10840000FFFFFFFFFFFFFFFFFFFFFFFFFE3FFFFF3D
:1084100010B5064C2378002B07D1054B002B02D05A
:10842000044800E000BF0123237010BD00E4FF1FDB
:108430000000000064E00000044B10B5002B03D0E6
:108440000349044800E000BF10BDC0460000000022
:1084500004E4FF1F64E00000402292029A1A924650
:108460007047C046174B002B00D1134B9D46FFF7BA
:10847000F3FF00218B460F461348144A121A05F0E9
:108480006CF90E4B002B00D098470D4B002B00D001
:1084900098470020002104000D000D48002802D05C
:1084A0000C4800E000BF02F0CAF82000290002F0EA
:1084B000DBF805F025F9C0460000080000000000C8
:1084C0003DA60000005F002000E4FF1FF0EEFF1F4C
:1084D000000000000000000072B60A480A4901606E
:1084E0000A6882F30888094880470949094A0A4B03
:1084F0009B1A03DD043BC858D050FBDC62B607482A
:108500008047000008ED00E0008000006DC0000022
:108510008CE0000000E0FF1F48E3FF1F65840000BF
:1085200011480047114800471148004711480047CB
:1085300011480047114800471148004711480047BB
:1085400011480047114800471148004711480047AB
:10855000114800471148004711480047114800479B
:10856000114800471148004721850000258500007B
:10857000CD9C0000B18500003586000041860000DA
:108580002185000021850000218500002185000053
:108590001DCA000035CA00002185000021850000A9
:1085A0002185000021850000C1C400002185000054
:1085B0007046C0082CD3EFF309808169023909782D
:1085C000002929D101B50FC8B8470CBC03C29E468B
:1085D0001E4B06CB91421ED0002909D0EFF3098033
:1085E00020388863F0C044464D4656465F46F0C08A
:1085F000083B1A60906B1030F0C8A046A946B246FE
:10860000BB4680F309882038F0C80220C0430047E9
:10861000EFF30880D1E770470D4A13689942FAD802
:1086200001B5890053589C460FC8E0470CBC106048
:108630009E46704701B504F067FD03BC8E46C7E750
:1086400001B504F023FD03BC8E46C1E7ECE1FF1F3A
:108650009CDD000002B471464908490009564900F2
:108660008E4402BC7047C04602B4714649084900B6
:10867000095C49008E4402BC7047C0460022430892
:108680008B4274D303098B425FD3030A8B4244D3DA
:10869000030B8B4228D3030C8B420DD3FF2209021C
:1086A00012BA030C8B4202D31212090265D0030BDB
:1086B0008B4219D300E0090AC30B8B4201D3CB03D1
:1086C000C01A5241830B8B4201D38B03C01A524113
:1086D000430B8B4201D34B03C01A5241030B8B4215
:1086E00001D30B03C01A5241C30A8B4201D3CB0200
:1086F000C01A5241830A8B4201D38B02C01A5241E5
:10870000430A8B4201D34B02C01A5241030A8B42E7
:1087100001D30B02C01A5241CDD2C3098B4201D3FF
:10872000CB01C01A524183098B4201D38B01C01A7D
:10873000524143098B4201D34B01C01A52410309F4
:108740008B4201D30B01C01A5241C3088B4201D3A3
:10875000CB00C01A524183088B4201D38B00C01A50
:10876000524143088B4201D34B00C01A5241411A77
:1087700000D20146524110467047FFE701B5002084
:1087800000F0F0F802BDC0460029F7D076E7704748
:1087900003460B437FD4002243088B4274D3030962
:1087A0008B425FD3030A8B4244D3030B8B4228D303
:1087B000030C8B420DD3FF22090212BA030C8B4229
:1087C00002D31212090265D0030B8B4219D300E0C9
:1087D000090AC30B8B4201D3CB03C01A5241830B4E
:1087E0008B4201D38B03C01A5241430B8B4201D3FE
:1087F0004B03C01A5241030B8B4201D30B03C01A27
:108800005241C30A8B4201D3CB02C01A5241830AA0
:108810008B4201D38B02C01A5241430A8B4201D3CF
:108820004B02C01A5241030A8B4201D30B02C01AF9
:108830005241CDD2C3098B4201D3CB01C01A524160
:1088400083098B4201D38B01C01A524143098B42E9
:1088500001D34B01C01A524103098B4201D30B01D2
:10886000C01A5241C3088B4201D3CB00C01A5241F7
:1088700083088B4201D38B00C01A524143088B42BC
:1088800001D34B00C01A5241411A00D20146524155
:10889000104670475DE0CA0F00D04942031000D374
:1088A0004042534000229C4603098B422DD3030AC9
:1088B0008B4212D3FC22890112BA030A8B420CD3D9
:1088C000890192118B4208D3890192118B4204D302
:1088D00089013AD0921100E08909C3098B4201D382
:1088E000CB01C01A524183098B4201D38B01C01ABC
:1088F000524143098B4201D34B01C01A5241030933
:108900008B4201D30B01C01A5241C3088B4201D3E1
:10891000CB00C01A524183088B4201D38B00C01A8E
:108920005241D9D243088B4201D34B00C01A524165
:10893000411A00D20146634652415B10104601D3F2
:108940004042002B00D54942704763465B1000D37C
:10895000404201B5002000F005F802BD0029F8D022
:1089600016E770477047C0461C2101231B0498423C
:1089700001D3000C10391B0A984201D3000A0839B0
:108980001B09984201D30009043902A2105C401867
:108990007047C0460403020201010101000000000B
:1089A00000000000002B11D1002A0FD1002900D1B6
:1089B000002802D00021C943080007B4024802A1E0
:1089C0004018029003BDC0469DFFFFFF03B46846F8
:1089D00001B5029800F034F8019B9E4602B00CBC31
:1089E0007047C046F0B5CE46474680B50700994669
:1089F0003B0C9C4613041B0C1D000E00614600043A
:108A0000140C000C45434B4360436143C0182C0CCD
:108A100020188C46834203D980235B029846C444C5
:108A2000494679437243030C63442D042D0CC91845
:108A3000000440198918C0BCB946B046F0BDC04614
:108A4000F0B557464E464546DE46E0B504000D00FB
:108A50009246994683B08B4230D82DD04946504635
:108A600000F0BAF829000600200000F0B5F8331A2B
:108A70009846203B9B4633D45A4653469340424641
:108A80001F00534693401E00AF423AD8AF4200D178
:108A900078E05B46A41BBD41002B00DA75E00022A4
:108AA00000230092019301235A469340019301232E
:108AB00042469340009328E08242CFD9002200230F
:108AC000009201930C9B002B01D01C605D6000980C
:108AD000019903B0F0BCBB46B246A946A046F0BD22
:108AE000424620239B1A5246DA40414613004A462A
:108AF0008A40170042461F43534693401E00AF4230
:108B0000C4D900220023009201934346002BD9D000
:108B1000FB0772081A4346467B080EE0AB4201D1C0
:108B2000A2420CD8A41A9D41012024196D410021B4
:108B3000013E24184D41002E06D0AB42EED9013E35
:108B400024196D41002EF8D1009801995B46001957
:108B50006941002B24DB2B005A464446D3402A00AF
:108B6000E2401C005B461500002B2ADB26009E40DD
:108B7000330026004746BE403200801A99410090DB
:108B800001919FE7A342BCD883E7424620230021FE
:108B90009B1A0022009101920122DA40019286E79D
:108BA000424620239B1A2A0046469A402300F3405F
:108BB000444613432A00E2401C005B461500002B8C
:108BC000D4DA42462F002023260097409B1ADE402D
:108BD0003B003343CDE7C04610B5002903D1FFF772
:108BE000C3FE203002E00800FFF7BEFE10BDC04605
:108BF0000023C25C0133002AFBD1581E704710B518
:108C000000F05AFB10BD0000F0B50400437885B0B9
:108C100001938378019A1B0212041343C2780679E8
:108C200013434279A7790D001002E17930433E04E5
:108C300030430E060643207836BA01380B2815D883
:108C4000FFF712FD314EA9C6C9CCD0D67216062444
:108C500032000832954209D1220031000832180052
:108C600000F0CDFF2A00011E00D192E0202017E085
:108C7000180000F0BBFF051EF8D0082200212000DC
:108C800000F060FC32000821280015E012043F02C9
:108C90003A431800114300F0C4FF0028E6D12078C1
:108CA00000F06CFC0AE0012D0CD1280000F066FCFD
:108CB00000F07EFF0B22290000F044FC00F006FBD0
:108CC00005B0F0BD0C2DD1D1651C280000F030FF9F
:108CD0000028CBD1207800F051FC0B220121D3E7F2
:108CE000012D0AD100F06AFF00BA0390207800F04D
:108CF00045FC0422290003A8DEE7052DB6D1A278A1
:108D00006078E3781202024320791B041A430006BC
:108D1000104300BA651C00F031FF0028A6D120786E
:108D200000F02CFC0422D9E7012D12D100F052FFF3
:108D300000BA029000F054FF00BA0390207800F0CF
:108D40001DFC0422290002A800F0FCFB04220521DE
:108D5000D1E7092D00D089E7A2786078E378120284
:108D6000024320791B041A4300061043A27961795B
:108D7000E37912020A43217A1B041A4309061143BC
:108D800000BA09BA884200D970E700F009FF2A004A
:108D90000021200090E7012D0AD1032000F0EEFB16
:108DA00000F012FF03AB18702A002900180083E7B7
:108DB000022D00D05AE70198431E9841C0B200F03E
:108DC000E9FE207800F0DAFB0122601C110073E755
:108DD00000F068FE61E700F081FE5EE77F2302227B
:108DE0006370D5E70423002103226370A170D0E7EC
:108DF0000122024B08201A7052E7C04674ECFF1F94
:108E000070B586B003AC0E0005000B2200212000D7
:108E100004F0A3FC002E1AD0287813280ED80F28AF
:108E200005D8002813D020232370123354E01138C2
:108E300002280ED8FFF718FC565A04002028F2D159
:108E40000B220021200000F07DFB00F03FFA06B06D
:108E500070BD1123237068786070013806283DD8F2
:108E6000FFF702FC040C11171D33370002223E49A4
:108E7000A2700F20684404F067FCE1E7022202A917
:108E80000A80A270F5E7022302A9FF3302220B80B9
:108E9000F7E700F05DFC354901220870F1E7FA259B
:108EA00000F046FCAD006843019000F023FC454310
:108EB0000F200823042202A968440295A37004F03D
:108EC00043FC0422132001A9D4E701222849A270FF
:108ED000CFE72023237016336370B1E7202323707C
:108EE0001433F9E7202323701333F5E7687801384A
:108EF0000928F3D8FFF7AEFB050505050505092090
:108F0000F22C202323701733E6E7AB78012B0FD127
:108F1000EB78082B08D1174A13700522164B1A70EC
:108F2000132323700C3BD7E7202323701833D3E798
:108F3000202323701533CFE7AB78012BF8D1EB78E2
:108F40005A1E93410D4A1370132323700B3BC3E742
:108F5000AB78012BECD1EB785A1E9341084A137081
:108F600013232370093BB7E702E0FF1F76ECFF1FD6
:108F7000A8ECFF1F04E0FF1F75ECFF1F06E0FF1FBA
:108F800001E0FF1F10B500F097F910BD10B500F01B
:108F90007FFA7021074800F02DFA7021064800F092
:108FA0003DFA7221054800F025FA7221044800F0CC
:108FB00035FA10BD018E0000FF8B0000098C000007
:108FC000858F000030B50023032201250B4C85B0AE
:108FD00001A920000B704A70CB704B718B71CB7163
:108FE0000B728D700D7103F08DF82900200003F0D5
:108FF000E7F8200003F040F905B030BD00B00340B1
:1090000073B500230091694604008B800F48D1B2EC
:1090100003F0CCF86A4621000C4803F0EBF88026F8
:109020000A4D2100280003F00FF93042F8D0012347
:109030000020F822A342404104340549C0B2FF3267
:10904000A40002F033FD605976BDC04600B0034075
:1090500084D70000F7B501276B4669461F710023CE
:109060004025264C4B71A369254A264E1340A36127
:10907000A36901A9AB432B430A003000A361062179
:1090800003F022FAFFF79EFF00F0DCFB1E4800F021
:1090900011FC8021B5601A4AA369490013400B43B3
:1090A000A36100F01DFC622000F004FC756000F07C
:1090B00017FCA369124A07211340A3613A0000205C
:1090C000FFF79EFF0700104800F0F4FB8021B56019
:1090D000A3690B4A490013400B43A36100F000FC55
:1090E0000A480B497843FFF7C9FA0021094B0E38AB
:1090F000FF3883424941084BC818FEBD00C00440F8
:10910000FFF8FFFFC0F00F40B80B0000E40C0000B8
:10911000FF0F00009902000003990000032313B51C
:10912000C0200A4A0004117801AC0B4313700849AF
:10913000084A8B5803438B50200003F009F90123A0
:1091400021000548637003F023F913BD0040064079
:10915000007004400410000000F005400449054A76
:10916000CB691A40C023DB001343CB617047C04674
:1091700000C00440FFF8FFFFF0B5070089B00C20E5
:1091800002F038FF344B0024984205D90C2002F03D
:1091900031FF324B83426441012520004C2230498B
:1091A000284002F083FCFF2F40D180212D4B013F4E
:1091B0005A690A435A6159602B492C4ACB691A40B3
:1091C00080235B001343CB6101230193022300261C
:1091D00001ADFF33AB80FE3BAB710C200433039336
:1091E000049605962E7502F005FF21494000FFF711
:1091F00045FA0130440838007F216043FFF73EFA0A
:1092000001304008013C241A240201380443079429
:10921000184C2A003100200003F0DEF880220223DF
:10922000D200A1580B43A35009B0F0BD002F0FD1BD
:1092300080210C4B2F005A690A435A6199600A49F0
:109240000A4ACB691A4080235B001343CB61BBE71A
:10925000FFF784FFB8E7C04623F40000FF127A004E
:10926000B8D70000C0F00F4000C00440FFF8FFFF77
:10927000127A000000F005408022024B52001A6072
:109280007047C04600A0044007B501216B466A46FE
:10929000197100235371054A054853680340536010
:1092A000044801AA03F010F907BDC046009004402D
:1092B000FFF8FFFF00F00F40024A034953680B40DC
:1092C0005360704700900440FFF8FFFF0449054ACF
:1092D0004B681A4080235B0013434B607047C046C5
:1092E00000900440FFF8FFFF70B5064D064C2A8839
:1092F0000021200004F031FA00232B80034B23804F
:1093000070BDC04654ECFF1F4CE8FF1F2039000021
:10931000087870B5042834D00023042805D8012823
:109320001DD0022825D0294A29E02028FBD1012080
:10933000264A274C107023704B608B60254B0969BF
:10934000254D1A782960002A03D0244A1278002A71
:109350000ED01B78002B1CD001F072F908E04B6096
:109360008B6013781E4A5B08137003221D4B1A7022
:1093700070BD1D4A4A608122D2008A60154A13706E
:10938000F6E7164B01224B608123DB008B60114B0B
:10939000EDE7164B1B68002B06D0114A1278702A95
:1093A00002D11148C9B29847114B1B68002B07D056
:1093B0000B4A1278722A03D129680B48C9B2984720
:1093C000FFF792FF01232370D2E7C0461DE4FF1F81
:1093D00000E0FF1F1EE4FF1F68ECFF1F44E4FF1FB7
:1093E0001CE4FF1F56ECFF1F4CE8FF1F58ECFF1F4B
:1093F0005CECFF1F03000020712905D0722904D006
:10940000044A0130702901D07047034A00201360DC
:10941000FAE7C04660ECFF1F64ECFF1F030000206A
:10942000712905D0722904D0044A0130702901D075
:109430007047034A00201360FAE7C04658ECFF1F4C
:109440005CECFF1F10B5FFF74FFF81220021D20017
:10945000084804F082F90023074A1370074A137082
:10946000074A1370074A1360074A13700122074B1B
:109470001A7010BD44E4FF1F1DE4FF1F1EE4FF1F10
:109480001CE4FF1F68ECFF1F56ECFF1F00E0FF1FEE
:109490008023224A1B01116830B50B4380211360E1
:1094A0001F4A20485368890003400B435360936868
:1094B00085B0034019439160FFF7C4FF684603F08D
:1094C00025FA194B6A460193022300201372013BCF
:1094D000937002F08FFD154D02006946280003F0DD
:1094E0006FF9C222124992008B581248124C034065
:1094F0008B5020002422002104F02FF921002800A5
:109500000E4B0F4A03F01CFA21222100280003F021
:109510004FFA0023237005B030BDC04638800440A8
:1095200000B00440FFF8FFFF7000720000700640BA
:1095300000E100E0FF00FFFF20E4FF1F1CE4FF1F2D
:10954000119300000300812010B58C18C0008442E4
:109550000CD807480818190004F0F6F8054B1A88CB
:10956000944200D91C800022034B1A7010BDC046E3
:109570004CE8FF1F54ECFF1F00E0FF1F054B187065
:10958000054B1A88002A01D101321A800022034BB0
:109590001A7070474CE8FF1F54ECFF1F00E0FF1FDC
:1095A00010B50E210C4803F051FA002806D00E2108
:1095B000094803F05BFA0122084B1A70082106489B
:1095C00003F044FA002806D00821034803F04EFABD
:1095D0000122034B1A7010BD00C0074078ECFF1F3A
:1095E00079ECFF1F1D4A1E491369194080235B0057
:1095F0000B432A2113611B4B19701B4B19785B78A5
:10960000CB0704D508231949887803438B7080233E
:1096100017495B04486803434B600B68C1205B003B
:109620005B080B601369134980001940B0231B03CA
:109630000B43C0211361104A090613581B021B0A71
:109640000B43135080231360183013581B021B0A5E
:109650000B43135080231B061360704700B0044077
:10966000FFF8FFFF00E0074000F0074000D0074090
:1096700000700440FFFFF0FF00E100E037B5094C47
:109680002378002B08D16A460125074801A91571E6
:10969000537103F0FAF9257000221B211000FFF727
:1096A000AFFC3EBD6CECFF1F00D0074007B50123A7
:1096B0006A46137100235371FFF784FC00F0C2F86F
:1096C0000321084801AA02F0FFFE8022064B07484A
:1096D000D968520001400A43DA60054A53680340E2
:1096E000536007BD80F00F4000B00440FFF8FFFF5B
:1096F00000A0044070B508260A4D0B4800F0DAF8C7
:109700006E6000F0EDF8002209211000FFF778FCF0
:10971000AE600400FFF7B2FF010004486043FEF7AB
:10972000ADFF70BD80F00F40B80B0000F82A0000BC
:10973000002210B510001D21FFF762FC0400FFF7A6
:109740009DFF0100FA2080006043FEF797FF10BDE7
:109750000D4B70B51D69FFF7CDFF0400FFF7E8FF63
:109760000A4A0300E90604D40120944200D90230D9
:1097700070BD00209442FBD92000C8308342804154
:1097800040424000F4E7C04680F00F40DB05000097
:10979000F0B5050003201040434258410E0014006C
:1097A0000E491F2285B0C0B202F080F90C4F330081
:1097B00022002900380002F01DFB002809D10123F6
:1097C000029001900093320023002900380002F03B
:1097D00025FA431E9841C0B205B0F0BDECD7000099
:1097E000D0ECFF1F70B50A4C01000A4B0500E2687F
:1097F000200002F0B7FA031E05D129002000E2681C
:1098000002F05EFA03005A1E9341D8B270BDC04602
:10981000D0ECFF1F6B66656B80220121074B520065
:109820001A65074A11701A6817318A431A601A6854
:109830000A42FCD1BFF34F8F7047C04600800340FF
:109840006DECFF1F14491548154A435830B51A40AE
:10985000802385B05B04134301AC4350200003F028
:109860008DF902230F4D21002800237003F036F9F3
:1098700080212800490003F099F980220A4B9202C6
:109880001A60122002F0B6FB0022084B8008186014
:10989000074B1A7005B030BD041000000070044082
:1098A000FFFFFFFC0080034000E100E070ECFF1FC1
:1098B0006DECFF1F0021074B020010B518680B006C
:1098C000FFF790F80023044AFFF76CF8034B986009
:1098D00010BDC04670ECFF1F40420F0000800340E7
:1098E000182207490B6893431A00082313430B609F
:1098F000044B1A78002AFCD000221A707047C04628
:10990000008003406DECFF1F10B5022809D1FFF75E
:1099100099FD00230121044A1370044A1170044A7E
:109920001370002010BDC04677ECFF1F06E0FF1F3C
:1099300075ECFF1F70B5002003F08EF9CE25FFF700
:1099400089FB324A324B334C6D00904238D0324A58
:10995000904241D0314AFF21904249D1304A1140D2
:1099600059555B19110A5970110C120E9970DA7061
:109970002C4B2380FFF736FEFFF798FEFFF7E8FE3B
:10998000294C2070FFF7CAFBFFF7E8FB237864201F
:10999000022B00D09B30254B254918700300434310
:1099A0005843FE23DB01C018FEF7F2FEC0B2FFF7FA
:1099B000E3FB00F063F8FFF7E9FAFFF765FC70BD21
:1099C0001C4A5A559D33FF33110A5970110C120E5F
:1099D0009970DA70184BCCE7184A5A559D33FF330B
:1099E000110A5970110C120E9970DA70144BC0E7FD
:1099F000144A114059559D33FF33110A5970110C07
:109A0000120E9970DA70104BB3E7C046059900004A
:109A100028E0FF1F02E0FF1F0699000004990000E4
:109A20001DD800000499FFFF76ECFF1F05E0FF1F23
:109A300001FE000022D800000599FFFF27D8000092
:109A40000699FFFF2CD800000399FFFF10B5084CC2
:109A5000084B20000B22084908C003F075FEFC22C9
:109A600000235202E37322616361A36110BDC0460B
:109A700008E0FF1F67666373F8D800008021890241
:109A8000064B0A6810B59A4204D11C22044803F020
:109A90005BFE10BDFFF7DAFFFBE7C0466766637346
:109AA00008E0FF1F802110B50B4C1C22200089020A
:109AB00003F03CFE002398420CD080208002FFF788
:109AC00091FE031E06D1802022001C218002FFF798
:109AD0005FFE0300D8B210BD08E0FF1F802010B564
:109AE0008002FFF77FFE041E01D1FFF7AFFF2000C9
:109AF00010BD000070B586B001AC22000B4B050014
:109B000043CB43C2002603CB03C22800B300032289
:109B1000E158083003F00AFE002805D00136052E72
:109B2000F3D1002006B070BD0120FBE770D7000024
:109B300070B5060000F050FD012400280CD0300064
:109B4000FFF7D8FF0B4D0400281D002C06D00B2278
:109B5000310003F0F9FD0024E0B270BD31000822AD
:109B600003F0F2FD2800032203490C3003F0ECFD62
:109B7000F2E7C04608E0FF1F00D90000FE220123E3
:109B80005202904202D8024B18610023D8B27047AB
:109B900008E0FF1F014BD8730020704708E0FF1F4B
:109BA000024B5861996100207047C04608E0FF1FD2
:109BB000014804307047C04608E0FF1F014B186998
:109BC0007047C04608E0FF1F014BD87B7047C04676
:109BD00008E0FF1F014B58697047C04608E0FF1FAF
:109BE000014B98697047C04608E0FF1F81239B0224
:109BF000C0188023DB0298429B41184070478123A4
:109C000070B581249B02C318A4020120A34207D38C
:109C100080255C18ED02AC4202D81800FFF7B8FDB1
:109C200070BD81239B0270B5C418CD1823002B434F
:109C300001209B0513D1AC4211D881239B029C4289
:109C40000DD38023DB029D4209D22000FFF7CAFD1D
:109C50008023DB00E418A54201D30028F5D070BDB5
:109C600070B5EFF308840F2303400D2B01D1EFF300
:109C700009842500E36924359B0500D4043DC3060F
:109C800000D4483501F0E0FEEFF3098001F0DCFE7E
:109C9000EFF3088001F0D8FEEFF3148001F0D4FE5A
:109CA000280001F0D1FE606901F0CEFEA06901F04C
:109CB000CBFEE06901F0C8FE43220020024901F01A
:109CC000F5FE00F055FCFEE704D900007046FFF7F2
:109CD000C7FF704770B50400EFF3108672B6C36813
:109CE00042680F4D99544368013343608068834252
:109CF00009D3181A4242504129003022C0B201F063
:109D0000D5FE0023636009CCC01A431E984135225A
:109D10002900C0B201F0CAFE86F3108870BDC046AB
:109D200030D90000F8B50400EFF3108772B603686D
:109D300042680F4D981A431E98414222C0B2290032
:109D400001F0B4FE2068E3681E5CA3680130206067
:109D5000984209D3C01A4342584147222900C0B251
:109D600001F0A4FE0023236087F310883000F8BDC3
:109D700030D900000200EFF3108172B6406813681A
:109D8000984203D3C01A81F31088704792688018F4
:109D9000F8E770B5EFF3108572B68468FFF7EAFF55
:109DA00085F31088013C201A70BDF8B506000C0040
:109DB0001700FFF7EEFF0500B84200D93D00671914
:109DC000BC4201D12800F8BD21783000FFF782FFA6
:109DD0000134F5E70D4B10B51B6801000C4C5B0816
:109DE000834203D801236370636010BD0022013BEE
:109DF00018186270FEF742FC01239842F4D9C0188B
:109E00000321FEF73BFC0300EEE7C046D4E1FF1F51
:109E10007CECFF1F00226421174B10B517481A7005
:109E20001A749A61013259619A839860FFF7D2FFE0
:109E3000F8231349134A9B01885803438B5081230D
:109E4000402211485B008361104B5A6059690A43F4
:109E50000421FF315A614161202058605A698243D0
:109E60005A610B4B0B4A196580235B0353605169A0
:109E70000B43536110BDC0467CECFF1F808D5B001F
:109E8000007004403810000000B00440800000F86A
:109E90000090044000F00F40F0B5421E002824D08E
:109EA00012480024456801200023844640261048BB
:109EB00010E06746013C1F4214D0202747602F0066
:109EC0008660013FFDD12F004660013FFDD15B0858
:109ED000013A0AD3002CECD167460B7807240131F4
:109EE0001F42EAD120278760E9E7F0BD7CECFF1F25
:109EF000800000F8F0B5444B83B000935B78844653
:109F00000191002B00D183E0402120223F4B5A6079
:109F1000996059600100C90700D54AE19A60402361
:109F20003A4A61469360536063465B08890700D4F0
:109F300050E1202151604021344A916051606146D6
:109F400089085B18C90700D441E1202151604021F4
:109F50002E4A60469160516061466344C90800071B
:109F600000D431E1202050605B184021274A9160E5
:109F70005160DB0700D424E12023536040222021DC
:109F8000224B9A605A6099609A605A6059609A6050
:109F90005A605A698A435A61009A2031147F221EFE
:109FA00004D0013A99605960002AFAD14025012273
:109FB00016498D600E694D608D600B694D608D6036
:109FC00008695B0940091340104076095B00800076
:109FD000164018434D603043012800D16FE1022341
:109FE0002500821E40279A432135002A00D13BE1FB
:109FF000013D8F604F60002DFAD120224B69C0B225
:10A0000013434B614A60D0E07CECFF1F800000F8F6
:10A0100020214020744A009B516090605B681C00C6
:10A02000013CFDD1506018000138FDD16046C007E9
:10A0300000D5BCE0916040216B4A18009160013866
:10A04000FDD1516019000139FDD1614660464908D2
:10A05000800700D4AFE0202050604020624A1C00FE
:10A060009060013CFDD1506018000138FDD1604680
:10A0700080080918C00700D4B2E0202050604020BA
:10A08000594A1C009060013CFDD150601800013815
:10A09000FDD160466144C408000700D49DE0202043
:10A0A00050604020504A1D009060013DFDD150603D
:10A0B00018000138FDD10919C90700D47EE020211C
:10A0C00051604021484A180091600138FDD11800C4
:10A0D00051600138FDD120201C0090609160013C4E
:10A0E000FDD11C005160013CFDD150601C0091600D
:10A0F000013CFDD1516019000139FDD15169402564
:10A100008143516100990C7F211E0AD0180095608F
:10A110000138FDD1180055600138FDD10139002901
:10A12000F4D14025304A190095600139FDD11069FC
:10A13000190055600139FDD1190095600139FDD133
:10A1400011691E005560013EFDD11E009560013E63
:10A15000FDD1166955601D00013DFDD1750901262F
:10A160004909400931403540AD00064048002843C8
:10A170003043012800D1C8E002272100861E402577
:10A18000BE432131002E31D01C009560013CFDD131
:10A190001C005560013CFDD101390029F4D15369FF
:10A1A00020310B435361C0B2516003B0F0BD516028
:10A1B00041E75A60B3E6202090604EE7202191608D
:10A1C0007FE720239360D9E620209060CCE6202111
:10A1D0009160BCE620219160ADE62020906060E7B0
:10A1E000202090604BE7C046800000F800994E7F29
:10A1F000002E00D1BCE061463940009161460F421B
:10A2000000D091E1002C00D1A9E1402589491A0034
:10A210008D60013AFDD11A004D60013AFDD1013C3B
:10A22000002CF4D14A69203422434A61002E16D012
:10A230000222614611400A000091002A0FD120211C
:10A2400040257C4C2132A1601900A5600139FDD167
:10A25000190065600139FDD1013A002AF4D12022AC
:10A26000744BC0B25A60A0E7009A557F002D00D110
:10A2700086E0664662461E40134200D04CE1002C48
:10A2800000D166E140226B4B013C9A605A60002C81
:10A29000FAD120215A690A435A61002DDFD00226E3
:10A2A00063461E40002EDAD1202421234021614A3A
:10A2B0009460013B91605160002BFAD1CFE70223FB
:10A2C000604662461840134200D06DE03E3302E023
:10A2D0008B60013C4B60002CFAD12024554A202190
:10A2E0005369012523435361019B20261B682034B9
:10A2F00006E05660C01894605B085460002947D09F
:10A3000001391D42F5D19660F4E7022165466046A9
:10A310000D40014200D08FE0402008E0906019001D
:10A320000139FDD1506019000139FDD1013C002CEB
:10A33000F4D120243F4920204A69012722434A6161
:10A34000019A203412680EE04E601E008C60013EBF
:10A35000FDD11E004C60013EFDD10138AD18520800
:10A36000002800D1C8E020261742EDD18E60ECE72E
:10A37000002C00D049E7202153690B4353616EE75D
:10A38000002C00D07EE720224B6913434B6166E727
:10A390002022C30700D5D9E0264B9A604022254BE6
:10A3A00001209A605A602EE02020002700254026D8
:10A3B00001238E600A697F0852091A40AD180138DE
:10A3C000D2074E6017430028F3D1402206268A6048
:10A3D00008694A6040091840684018400138019BEC
:10A3E000B0430830002B00D01F60002C06D0402264
:10A3F000104B013C9A605A60002CFAD120210D4A82
:10A4000053690B43536163461B0602D50023009A30
:10A41000D360009B1B7C002B08D020244021054AE0
:10A420009460013B91605160002BFAD12022014BD6
:10A430005A60BAE6800000F8202000250027402658
:10A44000190096600139FDD11169566049093F3EF6
:10A4500031401E00013EFDD16D087F180138C9074B
:10A460000D430028EBD14026190096600139FDD13B
:10A4700010695660013BFDD1012340091840784026
:10A480001840013805339843019B0830002B00D059
:10A490001D60002C0ED04025009B34495A681300E3
:10A4A0008D60013BFDD113004D60013BFDD1013CAE
:10A4B000002CF4D120212D4A53690B43536163468C
:10A4C0001B0602D50023009AD360009B1B7C002B47
:10A4D00000D1ABE7009A40255468202223498A60C6
:10A4E00022008D60013AFDD122004D60013AFDD17C
:10A4F000013B002BF4D199E7EA0723D420211B4A22
:10A5000091604021194A180091600138FDD15160D5
:10A51000013BFDD10120D2E740221F33013B8A607D
:10A520004A60002BFAD1AAE621213E371D00976030
:10A53000013DFDD11D005760013DFDD101390029CC
:10A54000F4D15FE62021094A5160DAE7074B5A60EF
:10A5500024E72021054A53690B435361A2E62024D6
:10A5600002494A6922434A61009A66E6800000F87F
:10A57000BFF34F8F034B044ADA60BFF34F8FC046DF
:10A58000FDE7C04600ED00E00400FA0510B5034BFE
:10A590000021186802F056FD10BDC0469CECFF1F5C
:10A5A00010B5024B186802F05FFD10BD9CECFF1F58
:10A5B00010B5FFF7EBFF064B1978064B1A788A4265
:10A5C00003D1022A01D1013A1A70FFF7E9FF10BD49
:10A5D000A0ECFF1FA1ECFF1F7FB503780400002053
:10A5E000E52B11D0181E0FD00020202B0CD02600F8
:10A5F0000B362578102268460D4903F0A5F82B008C
:10A60000613B192B02D8002004B070BD1F2D01D86A
:10A61000052DF8D100236A46D25CAA42F3D001335B
:10A62000102BF8D10134A642E3D10120ECE7C0465B
:10A6300053D90000002070470120704770477047D1
:10A6400010B5034B0821186802F092FF10BDC046F8
:10A65000A4ECFF1F802110B5024B8900186802F09E
:10A6600087FF10BDA4ECFF1F37B580221B4B1202E1
:10A670009A6001F06FF9FEF751FDFEF76FFD02F0F1
:10A68000AFFAFEF7F9FDFFF7C5FB02F0C9FF144B67
:10A690001C68236898472369984763689847002493
:10A6A000002002F0E3FA0F4DFF20FEF765FD009455
:10A6B000009BAB420DDD012002F0D8FA0020FEF72E
:10A6C0005BFD0194019BAB42EADC019B01330193EA
:10A6D000F8E7009B01330093EAE7C04600ED00E095
:10A6E000BCD90000FF083D004021074B5A698A434E
:10A6F0005A615A6920398A435A61044A04495369A4
:10A700000B4053617047C046800000F800F00F40D6
:10A71000FFFFEFFF07B5FF236A463320694613703A
:10A7200053709370D370137153719371D371FFF79A
:10A73000B3FB01200EBD002330B5DCB2A24200D82D
:10A7400030BD0D00DC00E540C5540133F5E770B5C0
:10A7500005000E00642431002800FFF7CBFB02281F
:10A7600003D1013CE4B2002CF5D170BD37B5042211
:10A770000D0001006846FFF7DEFF69460520FFF780
:10A78000E6FF002401280FD101A90E30FFF7DFFFFB
:10A79000012809D101A90D30FFF7D9FF019B441E03
:10A7A0002B6063425C41E4B220003EBD13B504223D
:10A7B0000C00010001A8FFF7BEFF052001A9FFF76B
:10A7C000C6FF012801D0002016BD210001A80422E7
:10A7D000FFF7B1FF0D2001A9FFF7B9FF0128F2D162
:10A7E00000210D30FFF7B3FF013843425841C0B29A
:10A7F000EAE70000014B18607047C04624E0FF1FE5
:10A8000070B5FFF707FB802240202021084B094C40
:10A8100052035860596062605D6928435861586905
:10A8200001435961636901201A43626170BDC046EA
:10A83000800000F800F00F4010B5FFF755FF012031
:10A8400010BD0C2313B5034002200C00184301A9CE
:10A85000FFF77DFF019B0138236043425841C0B29E
:10A8600016BD000037B505000C00082804D10D4BBB
:10A8700001201B688B4213D0210001A80422FFF79E
:10A880005AFF0C2001A92840FFF761FF012803D1DE
:10A89000082D01D1034B1C60013843425841C0B21E
:10A8A0003EBDC046ACECFF1F10B51E210020FFF7D7
:10A8B000D9FF431E9841C0B210BD37B505000C004A
:10A8C00002F016FF002801D1280E0006F0212940D1
:10A8D00001430820FFF7C6FF002811D00C200540D7
:10A8E0000938054301A92800FFF731FF280001A915
:10A8F000FFF72DFF019B0138236043425841C0B24E
:10A900003EBD000037B504000D0002F0F1FE002846
:10A9100001D1200E0006F021214001430820FFF75D
:10A92000A1FF011E1DD0002C05D10F4B01215A683B
:10A93000AA4216D05D600422290001A8FFF7FBFEA1
:10A940000C2004400B3801A92043FFF700FF002131
:10A95000012806D10D30FFF7FAFE01384342584175
:10A96000C1B208003EBDC046ACECFF1F70B504008C
:10A970000D0000200649FFF7C5FF002806D029007A
:10A980002000FFF7F3FE431E9841C0B270BDC046E1
:10A990005200002370B504000D0000200649FFF7A7
:10A9A000B1FF002806D029002000FFF7FFFE431E5C
:10A9B0009841C0B270BDC0465200002337B50400B4
:10A9C0000D0000200949FFF79DFF00280CD0200052
:10A9D00001A9FFF7CBFE002806D01820019BE40058
:10A9E0000440E34017382B703EBDC04650000023A2
:10A9F00070B505000C0000200849FFF783FF002810
:10AA00000AD018222100EB00134099402800FFF7DC
:10AA1000CDFE431E9841C0B270BDC0465000002319
:10AA2000F0B51600140085B000900191019B9F19AC
:10AA3000009B3F1B9D192D1B002C0CD1012005B044
:10AA4000F0BD39002800FFF7B9FF002801D1002030
:10AA5000F5E7013CEAE703231D42F2D1032C0CD8B1
:10AA60002E002C19791B8919A642E7D03000FFF778
:10AA7000A5FF0028EBD00136F4E78023AE05B60D24
:10AA8000DB009E1BB44202D2032326009E4300201B
:10AA90001949FFF737FF0028D9D0290003A804225D
:10AAA000FFF749FE052003A9FFF751FE0128CED18B
:10AAB00000210E30FFF74BFE0128C8D1B3080193E7
:10AAC00000230093009B009A9900019B7918013B99
:10AAD0009A4208D30E20FFF73AFE0128B7D1AD19EC
:10AAE000BF19A41BBAE70F20FFF731FE0128AED132
:10AAF000009B0133E5E7C04652000023F0B50E008D
:10AB000014000F0085B00090009B9D1B7D19002C48
:10AB10000DD1012005B0F0BD28003978FFF768FF9E
:10AB2000002801D10020F5E70137013CECE70323C1
:10AB30001D42F1D1032C0CD82E002C19A642E8D0CE
:10AB40007B1B3000995DFFF753FF0028EAD00136E8
:10AB5000F4E78022AB059B0DD200D61AB44202D294
:10AB6000032326009E4300201649FFF7CBFE002852
:10AB7000D8D0290003A80422FFF7DDFD052003A992
:10AB8000FFF7E5FD0128CDD1B3089B00FB18019329
:10AB90000097009B019A934209D100210E20FFF7F4
:10ABA000D6FD0128BED1AD19BF19A41BC2E70D20E7
:10ABB0000099FFF7CCFD0128B4D1009B043300932A
:10ABC000E7E7C0465200002370B50C0001000F48B3
:10ABD000FFF7E0FE00280ED08026642576022100D3
:10ABE0000B48FFF7C3FE002805D02368334204D189
:10ABF000013D002DF3D1002070BD21000548FFF775
:10AC0000B5FE431E9841C0B2F6E7C046F4ED00E041
:10AC1000F0ED00E0F8ED00E037B504000F480191D9
:10AC2000FFF7B8FE002815D0802521006D020C48E2
:10AC30002943FFF7AFFE00280CD06424094801A97E
:10AC4000FFF794FE002805D0019B2B4204D1013C64
:10AC5000002CF3D100203EBD0120FCE7F8ED00E020
:10AC6000F4ED00E0F0ED00E0F0B516001D0004008A
:10AC700095B01CAB1B780F002422002107A801937C
:10AC800002F06BFD1A9B039605931B9B049506939C
:10AC900061792379A27909021943E37912041143F6
:10ACA0001B060B430C93617A237AA27A090219439B
:10ACB000E37A120411431B060B4361781093237847
:10ACC000A27809021943E378120411431B060B43CF
:10ACD0001193802300215B04082012971393002412
:10ACE000FFF7C0FDA04201D100205DE0A30003AA50
:10ACF0002000D158FFF790FF0028F5D00134042C34
:10AD0000F4D109200C99FFF787FF0028ECD0093413
:10AD1000A30003AA2000D158FFF77EFF0028E3D04C
:10AD20000134102CF4D120001399FFF775FF00288F
:10AD3000DAD01E491E48FFF72DFE0028D4D01D4949
:10AD40001B48FFF727FE0028CED0042002A9FFF7FA
:10AD500078FD0028C8D0A023029A1A42C4D18027C7
:10AD6000154CBF02124802A9FFF700FE0028BBD015
:10AD7000029B3B4203D1013C002CF3D1B4E70020FD
:10AD800003A9FFF721FF0028AED00C490848FFF7C0
:10AD900001FE0028A8D0019B0398012B01D1751951
:10ADA000281A43425841C0B215B0F0BD0B005FA055
:10ADB000F0ED00E009005FA040420F0003005FA03B
:10ADC00013B5FFF7A7FC002801D1002016BD6A4685
:10ADD0009E23137149331020537101A9FFF75CF8CA
:10ADE000FFF798FC0028F0D000246B466946082045
:10ADF0001C70FFF751F8200001A9FFF722FD012880
:10AE0000E4D02000E2E700000023F7B5012204248B
:10AE10000193304B52421A605A60FFF7F1FC2E4EFC
:10AE20003368002B03D09B68002B00D09847FFF7B6
:10AE3000C7FF002805D1013CE4B2002C23D120003B
:10AE4000FEBDFFF731FD0028F5D000210820FFF7F7
:10AE500009FD0028EFD0A0210420C905FFF702FD5D
:10AE60000028E8D0A02764253F06042001A9FFF7A9
:10AE7000E8FC0028DFD0019B3B40BB4214D0013DE1
:10AE8000002DF2D1D7E701210020FFF7EBFC0120D4
:10AE900002F016FC022001F0F7FF002002F010FC87
:10AEA000022001F0F1FFB8E704200C49FFF7DAFCBB
:10AEB0000028C0D03368002B03D01B69002B00D0C2
:10AEC000984700210820FFF7CDFC0028B3D00124CB
:10AED000B5E7C046ACECFF1FECEEFF1F000F0050C3
:10AEE00037B50400062800D19FE0FFF789FC072C46
:10AEF0001ED82000FDF7B8FB041809676A811C07FB
:10AF0000012002F0DDFB01205CE0012002F0D8FB13
:10AF1000022001F0B9FF002002F0D2FB022001F074
:10AF2000B3FFFFF7E1FBEEE7FFF76EFF002801D16B
:10AF3000002047E0414D2878012804D102F0C0FBF1
:10AF4000022001F0A1FF3E493E48FFF723FD041E09
:10AF500011D1012002F0B4FB022001F095FF200086
:10AF600002F0AEFB022001F08FFF35493548FFF7B4
:10AF700011FD0028DCD001213348FFF70BFD00282C
:10AF8000D6D02B78002B05D1012002F099FB0220AE
:10AF900001F07AFF002002F093FB8024022001F0F0
:10AFA00073FFA402274801A9FFF7E0FC0028BFD0E7
:10AFB000019B2342F6D000212348FFF7EBFC431E00
:10AFC0009841C0B23EBD21491E48F6E7FFF7F8FEA2
:10AFD0000028ADD0FFF768FC0028A9D00021082088
:10AFE000FFF740FC0028A3D0A0210420C905FFF7EB
:10AFF00039FC00289CD01249E6E7FFF705FF00283E
:10B0000096D013490F48FFF7C5FC002800D18FE701
:10B010008024A4020B4801A9FFF7A8FC002800D156
:10B0200086E7019B2342F5D06DE708490548FFF705
:10B03000B1FC002800D17BE773E7C046B4ECFF1FEA
:10B0400001005FA0F0ED00E0FCED00E000005FA07B
:10B0500003005FA013B50400062800D1DBE0FFF772
:10B06000CFFB072C1BD82000FDF7FEFA0447099EF2
:10B07000A1BC1907012002F023FB012016BD01200D
:10B0800002F01EFB022001F0FFFE002002F018FB80
:10B09000022001F0F9FEFFF7B7FE002801D10020E1
:10B0A000ECE7042001A9FFF7CCFB0028F7D05E49AC
:10B0B000019B04201940FFF7D5FB0028EFD00420A6
:10B0C00001A9FFF7BEFB0028E9D001990029F6DBB2
:10B0D000564B04201940FFF7C5FB0028DFD0802421
:10B0E000A405042001A9FFF7ACFB0028D7D0019BE1
:10B0F0002342F6D1FFF7F8FABFE7FFF785FE0028F5
:10B10000CDD04B494B48FFF745FC041E11D101201F
:10B1100002F0D6FA022001F0B7FE200002F0D0FAC9
:10B12000022001F0B1FE42494248FFF733FC0028FB
:10B13000B5D08024A4023F4801A9FFF717FC0028DE
:10B14000ADD0019B2342F6D001213B48FFF722FC02
:10B150000028A4D0394801A9FFF708FC00289ED098
:10B16000E021019BC9001940354B34481B68194345
:10B17000344B1943FFF70EFC002890D002208024A6
:10B1800001F082FEA4022B4801A9FFF7EFFB002883
:10B1900085D0019B2342F6D000212748FFF7FAFB18
:10B1A000431E9841C0B269E727492248F6E7FFF7F6
:10B1B00007FE002800D172E7FFF776FB002800D1D8
:10B1C0006DE700210820FFF74DFB002800D166E75E
:10B1D000A0210420C905FFF745FB002800D15EE748
:10B1E0001A49E2E7FFF710FE002800D157E710499F
:10B1F0001048FFF7CFFB002800D150E78024A402BD
:10B200000C4801A9FFF7B2FB002800D147E7019BDA
:10B210002342F5D031E70C490648FFF7BBFB002875
:10B2200000D13CE766E7C046FFFFFFBFFFFFFFEF2F
:10B2300003005FA0F0ED00E0FCED00E00CED00E0AD
:10B2400024E0FF1F0000FA0500005FA001005FA0DE
:10B25000034B1878013843425841C0B27047C0468A
:10B26000C5ECFF1F7FB5274E0500327800238242D0
:10B2700044D0254B1C68002A1ED1002D26D0230067
:10B2800038331B789B071ED463782178A2781B0281
:10B290000B43E178120413430906194300232000ED
:10B2A0001A4A02930193009512681830FFF7DCFCEC
:10B2B00000280BD10B2321E0230038331B789B0798
:10B2C00007D5002805D03378002BDDD0002335705A
:10B2D00014E063792179A0791B020B43E179000422
:10B2E00003430906194320000023183002930193F9
:10B2F0000093FFF7B9FC0C230028BED1180004B05E
:10B3000070BDC046C4ECFF1FB8ECFF1FC0ECFF1FB0
:10B31000F0B5814B8DB01B69012604900691059212
:10B320000793002B00D1C4E07C4BB6191C68002C9D
:10B3300000D1BEE07A4B1B68002B00D0ADE00220AC
:10B34000FFF790FF061E00D0B3E0059B002B00D155
:10B35000AFE0230034331A7801331B781B021A4301
:10B36000230036331D7801331B782D041B0615434B
:10B370001D43059B9D4200D91D00631D0793D87F87
:10B38000A31D0793E21DDB7F0792D27F1B020343BD
:10B3900012041343220008320792D07F0699000658
:10B3A0002A001843FFF7AAFB002800D1ADE0637C18
:10B3B000227CA17C1B021A43E37C090411431B0677
:10B3C00019430023270002930193A21DD07F631D20
:10B3D000DB7F00021843E31DDA7F079B1204DB7F4B
:10B3E00010431B0603431837009338002B00049AC0
:10B3F000FFF73AFC002800D189E000F047FB002865
:10B4000000D178E0617D237DA27D09021943E37DAF
:10B41000120411431B060B436AD00320FFF722FFDF
:10B42000002800D075E0637D227DA17D1B021A43B8
:10B43000E37D090411431B061943230038331B78AD
:10B440009C462300624639331B781B0213432200BB
:10B450003A32127812041A4323003B331B780190CE
:10B460001B061343012213400293A21DD07F631DCC
:10B47000DB7F00021843E31DDA7F079B1204DB7FAA
:10B4800010431B060343009338002B00049AFFF778
:10B49000EBFB00282FD112260BE05B69002B00D1BB
:10B4A0004DE7059A0699049898470D26012800D083
:10B4B00045E730000DB0F0BD2F00102D00D910274A
:10B4C0003A00049808A9FFF7ABFA00281DD03A000B
:10B4D000069808A902F02AF90028DCD1049BED1B8C
:10B4E000DB190493069BDB190693059BDB1B059375
:10B4F000002DE1D129E7049B5B190493069B5B199E
:10B500000693059B5B1B05931FE70A26D1E71126CF
:10B51000CFE70600CDE7C04664D80000B8ECFF1FB7
:10B52000ECEEFF1F1F4B10B51C690123002C35D01A
:10B5300000231D4A012013701C4A136002F094F886
:10B54000072300282AD0230001240C3358781A78C6
:10B55000997800021043DA7809040843120602437E
:10B560000AD158791A79997900021043DA790904D5
:10B570000843120602430DD0587A1A7A997A0002CB
:10B580001043DA7A0904084312060243224207D024
:10B59000074A13600122074B1A700023180010BDE0
:10B5A0001433D3E764D80000C4ECFF1FB8ECFF1FCE
:10B5B000BCECFF1FC5ECFF1F37B5284B1B6901937F
:10B5C0000C3359781C7809029A780C43D978120404
:10B5D000224309060A4324D15D7919799C792D0209
:10B5E0000D43D97924042543090629431BD11C4B5B
:10B5F000186800282FD0417803788278090219430F
:10B60000C378120411431B06164A0B431360427C95
:10B61000017C837C1202C07C11431B040B43000697
:10B6200018E0824218D85D7919799C792D020D4372
:10B63000D979240425430906294381420CD30949B9
:10B640000A605A7C197C987C1202DB7C114300044E
:10B6500008431B0618433EBD1433B2E764D800000C
:10B66000BCECFF1FC0ECFF1FF8B5FFF7A5FF0925D5
:10B67000041E3ED0214E00253368834239D0280075
:10B68000FFF7F0FD051E34D123002C331978013368
:10B690001B781B02194323002E331A7801331B78C1
:10B6A00012040A431B061A4323003033187801336F
:10B6B0001B781B02184323003233197801331B789F
:10B6C000090401431B06194323002833187801336A
:10B6D0001B781B02034320002A30077801300078D2
:10B6E0003F043B4300061843FFF708FA002802D046
:10B6F00034602800F8BD0825FBE7C046B8ECFF1F02
:10B70000F0B5364B01221D6985B0002D20D02C00EC
:10B7100004260C34637822781B02A0781A43E3785D
:10B72000000410431B06184315D161792379A279CF
:10B7300009021943E379120411431B060B430AD192
:10B74000A333FF33EA5C002A02D0FFF7EBFE0200CE
:10B75000100005B0F0BDFFF72FFF002814D0020045
:10B7600003003932117838331B780902194303007A
:10B770003A331A783B300378120411431B060B430B
:10B78000334201D01434C5E763782078A2781B02D5
:10B790000343E0781204134300061843FFF764FFE5
:10B7A000021ED5D10120FFF75DFD021ED0D10C4B4A
:10B7B0001868437A017A877A1B020B43C17A3F04E7
:10B7C0003B4309061943183013000292019200927C
:10B7D000FFF74AFA0028D5D11022B9E764D8000053
:10B7E000B8ECFF1F1F4B70B51C690500201E37D039
:10B7F000617A237AA27A09021943E37A1204114387
:10B800001B060B4302D0013B002B07DAC6220020A7
:10B810001549520000F04AF9002021E060792279B0
:10B82000A17900021043E279090408431206024399
:10B83000D80011184E78125C360288781643CA7800
:10B840000004064312063243AA42DCD84B79087939
:10B850008A791B020343C879120413430006184374
:10B8600070BDC04664D8000064D9000070B51A4BA2
:10B8700086B01B69060001240593002B0DD0174BE1
:10B8800024191D68002D08D0FFF7ACFF010030001F
:10B89000FCF77AFF002903D00F24200006B070BD0A
:10B8A0000120FFF7DFFC041EF7D128006B7B297B0A
:10B8B000AA7B1B020B43E97B1204134309061943BD
:10B8C000320023001830029401940094FFF7CCF961
:10B8D0000028E2D1E0E7C04664D80000B8ECFF1FC2
:10B8E00013B504000020084B1B690193834207D065
:10B8F0002000FFF777FFFF2803D82000FFF772FF33
:10B9000016BD80204000FBE764D8000013B50F4B44
:10B9100001241B690193002B13D00020FFF7A2FC28
:10B92000041E0ED100F0AAF800280CD0022001F06D
:10B930009BFE072001F098FE0022054B1A70FEF7CF
:10B940007BFF200016BD0120F1E7C04664D800004F
:10B95000C5ECFF1F70470000F7B504000191FDF72B
:10B9600047F9144F461C050041220021380001F020
:10B97000F4FE412E02D94126403D641921003200D7
:10B98000380001F0E1FE0C4C019A2300110A483303
:10B990001A705970FEF74EFE4A340123002804D174
:10B9A000FEF74AFE002802D002232370F7BD207064
:10B9B000FCE7C046075F0020005F0020F7B50500E8
:10B9C0001F480F0016000093FDF712F90190002D9B
:10B9D00004D03A000021280001F0BFFE002E01D063
:10B9E00000233380009B002B02D00023009A1370A9
:10B9F000144CE379181E21D0019A11490132974263
:10BA000003D2D11B3A0007310919002D0CD02300B5
:10BA100048331878230049331B781B0203433380D3
:10BA2000280001F091FE01E0002EF9D1009B0120D9
:10BA3000002B03D04A342378009A1370FEBDC04611
:10BA4000075F0020005F00200B4A10B514004B3444
:10BA50002178030000200F290CD8481C12318900DE
:10BA60005218190AC0B213715171190C1B0E2070B3
:10BA70009171D37110BDC046005F0020024B9879D0
:10BA8000431E9841C0B27047C6ECFF1F024BD879E5
:10BA9000431E9841C0B27047C6ECFF1F024B187A94
:10BAA000431E9841C0B27047C6ECFF1FF8B50C00AA
:10BAB0001500002817D1EFF3108672B603000200BC
:10BAC0000100FFF77BFF071E03D129002000FFF7CD
:10BAD00043FF86F31088002F05D1EFF30383DB06C5
:10BAE00001D1FEF765FDF8BD73B5A2260400184D1F
:10BAF000B60400281AD0FFF787F969461548FEF703
:10BB0000DCFE009BB34209D1802001214004FEF7F6
:10BB1000F9FE2B6F2000002B18D173BD0E4B0422B1
:10BB200001A90E480193FEF7E9FFF2E7094801A9D0
:10BB3000FEF7C3FE019BB34204D1802021004004E4
:10BB4000FEF7E0FE2B6F002BE7D000209847E4E7DC
:10BB500064D80000FC0000010400FA050CED00E0D0
:10BB600080B582B000AF7860034B1800034B984754
:10BB7000C046BD4602B080BD0C3000F033E3FF1F6D
:10BB800070B504000420002C11D00E0016433500BF
:10BB9000013B1D4061301E4209D1236801309942AA
:10BBA00005D3891862689B18994200D8280070BD97
:10BBB00070B505000E001400002812D020220021CC
:10BBC000200001F0CAFDEB68A96868686360266020
:10BBD000FCF754FD0423A060E36023616361A3616B
:10BBE000E36170BD702310B50A4C200023700A4B2E
:10BBF000984722786720D3B2920609D40130DA063A
:10BC000006D40122190080181140134200D1080007
:10BC100010BDC0460000024025E3FF1F70B58CB088
:10BC20001D0010AB1B780400039304230E00029246
:10BC30000193002D2ED004AAFFF7BAFF3100200097
:10BC40000B9B029AFFF79CFF0190002822D1039BD7
:10BC5000049C1E06164B1E43029B002B1AD080220A
:10BC6000230292041B0A1343124A1360124B1E60F4
:10BC70002A68124B1A60FFF7B5FF00280DD0119B00
:10BC8000002B00D01C60129B0190002B02D00023DF
:10BC9000129A136001980CB070BD0B9B029A03219D
:10BCA000D21A02921A008A43AD18E418D4E7C046AB
:10BCB000FFFFFF0004000240080002400C000240A9
:10BCC00070B504000D0016008CB004AA0093FFF7B5
:10BCD0006FFF320029002000099BFFF751FF0290FF
:10BCE000002814D12900200004AAFFF761FF069B59
:10BCF000049C019362425B4213405D42AC4201D11D
:10BD0000019AD51A009B1B020393002E02D10298C0
:10BD10000CB070BD2B1B00969E4200D90093099970
:10BD20000098FCF7ABFC8022230252041B0A134349
:10BD30000A4A00041360039B1843FF231843084B6F
:10BD40001860FFF74FFF002805D1009BF61AE41892
:10BD5000019BED18D9E70290D9E7C04604000240E4
:10BD60000800024070B505000E0014008CB004AA53
:10BD70000393FFF71DFF220031002800089BFFF707
:10BD8000FFFE002816D1049E059B721E141919008F
:10BD900020000293FCF7F8FC002903D0029C01303C
:10BDA0004443013CA64207D9002301932800FFF732
:10BDB000D7FE01980CB070BD9022330212051B0A09
:10BDC00013430A4A13600A4B039A9A420CD1FFF7B5
:10BDD00009FF2B690190002B00D09847019B002B95
:10BDE000E4D1029BF618DDE76B20E3E70400024094
:10BDF0006B66656B70B58AB005000E0014000420F8
:10BE00000093002A15D0280002AAFFF7D1FE3100C6
:10BE10002800059B009AFFF7B3FE002809D1029B7A
:10BE20000193009B002B06D11C002800FFF798FE11
:10BE300020000AB070BD2600154B04CE1A60059B89
:10BE4000042B19D1C022019B1B021B0AD2041343ED
:10BE5000104A1360FFF7C6FE2B690400002B00D0C8
:10BE60009847002CE1D1059B019A3400D218019229
:10BE7000009AD31A0093D4E7082BEBD1260062680E
:10BE8000054B08361A60019BE0221B021B0ADDE706
:10BE900008000240040002400C000240094A02234C
:10BEA000117808001840194204D193791B079B0FA1
:10BEB000012B05D1537801221340034A9B00985867
:10BEC0007047C04600400640A8DB00000020084B39
:10BED00010B51B785BB2834209DA064C78222068E1
:10BEE0000549431E9841C0B2FFF7E0FD206810BD30
:10BEF0000050064004EDFF1F6CDB0000104B10B536
:10BF00001C682403A40F022C0CD0032C15D0002095
:10BF1000844206D1FFF7DAFF80231B02984200D04B
:10BF2000200010BD074C912220680749431E98410C
:10BF3000C0B2FFF7BBFD2068F3E7FA208000F0E70E
:10BF40000070044008EDFF1F6CDB000070B5074B6C
:10BF50001C7A1D7EFFF7A2FF0723E4B2EDB264084E
:10BF60001D401C406419E04070BDC04600400640C2
:10BF7000074A137E5BB2002B08DB90790007800F25
:10BF800043425841034B4042184070470148FCE788
:10BF900000400640006CDC0210B5114CA07900078F
:10BFA000800F012809D002280ED0431E98410D4B66
:10BFB000404218400C4BC01810BDFFF76FFF237AAA
:10BFC0001B075B0FD840F7E7084CB52220680849EB
:10BFD000431E98415200C0B2FFF768FD2068EBE7AE
:10BFE00000400640009423FD006CDC0204EDFF1FBE
:10BFF0006CDB000070B513280BD8FCF735FB0C0C7C
:10C00000160A160A0A23260A0A0A290A0A0A0A2C02
:10C010002C2F002070BDFFF7BFFF124A124BD158E2
:10C02000090F0131FCF72AFBF4E70E4D0E4CFFF728
:10C03000B3FF2959090F0131FCF720FB29594903A6
:10C04000490FEEE7FFF75AFFE4E7FFF73FFFE1E7AD
:10C05000FFF77CFFDEE7FFF78BFFDBE7FA208000CE
:10C06000D8E7C0460070044044100000082310B513
:10C07000144A9178194202D091780B439370882129
:10C0800000228020104B49015A501049400258505C
:10C0900019680F480F4C0140196019590E480840A3
:10C0A000C02189040143195180210C4B1A72197661
:10C0B0007F391A7059700A490A700C329979114205
:10C0C000FCD110BD00D007400070044044100000B7
:10C0D000FFFFF3FF04100000FFFFFBC0004006401D
:10C0E00000500640054B10B5C01843425841462247
:10C0F0000349C0B2FFF7DAFC10BDC0460050FCBFD8
:10C10000B0DB000070B504000800431E98410D002C
:10C110004D222449C0B2FFF7C9FC2000FFF7E2FF1F
:10C120008023214A1B0511680B430C211360032255
:10C130002B799B000B40697811406A791943042AD6
:10C1400001D0102319436020EB785B0103400B43BF
:10C15000E979002901D080210B430F21A360E36816
:10C160008B430C390A401343AA79002A01D00422D8
:10C170001343AA78002A01D0082213430321E36065
:10C18000226A2B788A430B40134323622A7A0823BE
:10C19000002A03D0626A1343636270BD626A9A43E5
:10C1A0006262FAE7B0DB00003C8004401023C26802
:10C1B000002902D19A43C26070471343C360FBE772
:10C1C0000722436A9343042904D0043A11400B43E5
:10C1D00004210B4343627047016A03008022080078
:10C1E0001040114200D010005A6A40231A4200D079
:10C1F00018437047F8B501230600002015008B4254
:10C20000404154220F4FC0B2FF320C003900FFF7FB
:10C210004DFC2800AA22431E984152003900C0B2AA
:10C22000FFF744FC1F232A6813406A79002A01D0D3
:10C23000202213432A79002A01D040221343A4006C
:10C24000A351F8BDB0DB00000122002370B58A4283
:10C250005B410C006A220500FF32D8B20549A400F8
:10C26000FFF724FC62598023100018401A4200D0C6
:10C27000180070BDB0DB0000F7B54022036A04006F
:10C280000026134203D0036A013693430362C0239E
:10C2900080254027626A1343636200212000FFF774
:10C2A000D3FF28423AD0002523690193002E03D002
:10C2B0004023226A134323622000FFF78DFF4021B1
:10C2C000014029430120002927D1E26CA36C676C4F
:10C2D000D318266CDB19E56B9B19A06B5B191B1837
:10C2E00080200193019B00025B0803430193019BA3
:10C2F000E362E26EA36E656ED318AC46276E6344AC
:10C30000E66DDB19A56D9B195B190193019B5B0819
:10C31000184301900800019B2363FEBD2000FFF736
:10C320005BFF3842B9D00125BEE70000064B10B5CF
:10C33000C4186042604141220449C0B2FFF7B6FB15
:10C340002000431E984110BD0010FABFE4DB00003E
:10C3500010B50400431E98418B220849C0B2FFF774
:10C36000A5FB04220021200001F0F7F9012200239F
:10C3700022706370A270E37010BDC046E4DB000061
:10C3800002238268134383600023836070470000A8
:10C3900070B5802604000D00FFF7C8FF0C4A360672
:10C3A0001368200033431360FFF7EAFF094AA168CE
:10C3B000AB7811409B070B4329786A781943EB78D7
:10C3C0009B000B43002A00D13343A36070BDC046DD
:10C3D00038800440FAFFFF3FC02370B5C025947B2E
:10C3E0009B0424061C40D37BAD031B052B40E0259A
:10C3F0001C43137CED021B042B40E0251C43537CA3
:10C40000ED011B032B40E02530261C43937CED00FF
:10C410001B022B401C43D37C1B0133402E3EB140FA
:10C420001C43137D40185B0033401C439023A02124
:10C43000DB00C4509369C9009BB24350F021032430
:10C44000136809051B060B40916809020D40517BDA
:10C450002B43214080240B4311792404C90521403A
:10C4600080240B435179E40389052140C0240B4308
:10C470009179A402090421400B43FF21127BD201D0
:10C480000A4013438022D200835070BD10B5094C7E
:10C490002168002904D0084B084A1B681068984797
:10C4A0006168002904D0044B044A5B6850689847CF
:10C4B00010BDC0460CEDFF1F14EDFF1F1CEDFF1F4C
:10C4C00010B5FFF7E3FF10BD70B504001000431E68
:10C4D000984115000E0064220B49C0B2FFF7E6FA3E
:10C4E00001232A78B340002A03D162699A4362612A
:10C4F00070BD6A78002A04D1A36062691343636146
:10C50000F6E76360F9E7C04619DC000010B52024A7
:10C51000C27883782340103C2240134305D0044B5B
:10C520001B689847BFF34F8F10BD024BF8E7C0461A
:10C530002CEDFF1F30EDFF1F0A4B10B50024984271
:10C5400004D0094BC018431E9841441C012300200D
:10C55000A3424041AF220549C0B2FFF7A7FA20002D
:10C5600010BDC046006006400090F9BF4CDC0000E2
:10C570004023194202D0827813438370202319424A
:10C5800004D0502182798A4313438371704740223B
:10C59000114202D08378934383708B0603D57022B7
:10C5A00083799343837170470200C0789379C0B256
:10C5B0005B0602D58023DB0118439379DB0602D5A5
:10C5C00080235B0118437047F7B505000800431E40
:10C5D00098410C00774A7849C0B2FFF767FA6B467A
:10C5E0000022DA716A46DB7928000133DBB2D371AD
:10C5F000FFF7DAFF261D070043042DD4FB0447D4C0
:10C6000002230120EB70074258D14022174200D18B
:10C610007FE0042339002070207119401F4269D047
:10C62000AA780C3313436A460700AB702B79DBB250
:10C63000D3712379A2691A420BD0E369002B08D089
:10C640006B46226ADB79310013702800226AE369A5
:10C650009847002F62D11AE04023AA791343AB71A7
:10C6600000220223EA70EB70237893420DD020233E
:10C6700022612270A26923711A4206D0E369002B5D
:10C6800003D031002800226A98477B06B6D4F7BD54
:10C690001023AA791A43AA710022EA700232EA70C2
:10C6A000A26923711A4206D0E369002B03D031003E
:10C6B0002800226A98477B06A2D4E8E71822AB78C4
:10C6C00093436A46AB702B79DBB2D371E368002BDE
:10C6D000DDD03A4A2023226100222270A269237110
:10C6E0001A42D4D0E369002BD1D031002800226A4D
:10C6F0009847CCE71820AB780F0083436846AB70AF
:10C700002B79DBB2C371C379002B00D091E7227182
:10C710008FE73B0649D504231F420FD0E368A26888
:10C72000002A2DD102232371E369002B03D03100AD
:10C730002800226A98470023636123E0E268A16829
:10C74000002901D0002A09D12371E369002B03D00D
:10C7500031002800226A9847002363612B79E26840
:10C76000DBB2002A00D192E7A268511CA1601370CD
:10C77000E368013BE360636901336361E36886E773
:10C78000002BCFD0E368002B0BD0A3685A1CA2600B
:10C790001B782B71E368013BE360636901336361DC
:10C7A00075E71822AB789343AB706A462B79DBB2FE
:10C7B000D3716CE7560800004CDC00004E0400000A
:10C7C000F0B504000800431E9841494F0D0085B0A4
:10C7D0003900C0B21600474AFFF768F92000FFF79A
:10C7E000ABFE454B8000C158444B0A0CD2180123C4
:10C7F00089B28B401068034313600023FF2223702B
:10C800006370A370E270AF3A6371A271E3712B7A27
:10C81000002B45D0022B48D0AB782A785B00D201A0
:10C8200013430222A178300091430B43DBB2A37083
:10C8300063796D3269781340EA78C90112010A43BD
:10C84000FA2100261343DBB26371EB6889000127EC
:10C850000093FBF713FF3500039001967F4202958A
:10C860000025274A6B00D05A264BB0400399584305
:10C87000FBF704FF009B83422DD9181AB84230D32E
:10C880000135402DEDD1029D022E02D00136002F40
:10C89000E5D1019B9B011D43EDB2657005B0F0BD74
:10C8A000AB885B00DBB22370B6E7EB88A888164A3A
:10C8B0009842804139004042FFF7F8F8AB885B00AE
:10C8C000DBB22370EB885B00DBB2E3710823627993
:10C8D00013436371A0E7009BC01AB842D0D200286E
:10C8E00003D0070002950196CAE707000196CBE73F
:10C8F0004CDC0000A906000084DC0000007004404D
:10C900008CDC000020A10700C606000010B5040062
:10C91000431E9841084A0949C0B2FFF7C7F81022E0
:10C920000021200000F019FF00232372FA231B01CD
:10C93000E3600123236010BD030700004CDC00000E
:10C94000F8B5050008001E00431E98410C001700B2
:10C950001049114AC0B2FFF7A9F82800FFF7ECFD13
:10C96000050024220021200000F0F7FE0B4BAA0056
:10C97000D4500B4B0B4AE7611A600B4B26625B5796
:10C98000002B06DB1F2213401E3A9A401300074A71
:10C990001360F8BD4CDC0000C707000024EDFF1F4A
:10C9A00030EDFF1FC9C500000CDD000000E100E014
:10C9B000F8B504000800431E98410D001700144903
:10C9C000144AC0B2FFF772F82B78DEB2002B1CD1EC
:10C9D00060212000FFF7DBFD14223100281D00F04C
:10C9E000BCFE462201233A432B70AA61A2794F3341
:10C9F0001A43A271A27920001343A371122360216C
:10CA0000E370FFF7B5FD3000F8BD0348FCE7C04612
:10CA10004CDC0000F60700004C04000010B5034B8E
:10CA200003481968FFF772FD10BDC04624EDFF1FD3
:10CA30000060064010B5034B03485968FFF766FDD8
:10CA400010BDC04624EDFF1F00700640CB0803D088
:10CA5000012B09D0002070470530072300781940CA
:10CA6000C840063B1840F6E70630F6E7CB0802D090
:10CA7000012B08D07047053007231940063B8B4037
:10CA8000DBB20370F6E70630F6E74B780A781B0155
:10CA90001343DBB2837070470C4B10B500249842EF
:10CAA00008D00B4B0134984204D00A4BC018431EE7
:10CAB0009841841C02230020A34240414E22064993
:10CAC000C0B2FEF7F3FF200010BDC0460080034057
:10CAD000009003400060FCBF0EDD000070B5050053
:10CAE0000800431E98410C0055222149C0B2FEF7B0
:10CAF000DDFF2800FFF7D0FF1E4B8000C1581E4B02
:10CB00000A0CD218012389B28B401068802103439C
:10CB1000136007222378090413402B60237962787D
:10CB20005B0152021343A279083592041343227A1F
:10CB300012041343E27952041343627AD20413437A
:10CB4000E278D2050A40F0211343A27809051206C3
:10CB50000A401343EB676279C023002A03D0EA6FCF
:10CB60001343EB6770BDEA6F9A43EA67FAE7C04682
:10CB70000EDD000040DD00000070044010B5040030
:10CB8000431E984185220849C0B2FEF78FFF00235B
:10CB90002370637023716371A371E37123726372F5
:10CBA000A370E37010BDC0460EDD000070B5CAB2C0
:10CBB000CB0503D5402301680B4303600023012507
:10CBC0004026002A00D170BD2A4204D0D900411865
:10CBD000CC683443CC600133DBB25208F1E700008B
:10CBE000F8231649164A9B01885882B003438B509C
:10CBF0000022144B1A601A601A60134B0132FF3284
:10CC00001A61124BFF3A9A609A609A60596911430F
:10CC1000596159691143596159690A4310215A618F
:10CC20000B4A53698B4353610A4B0193019B002BC1
:10CC300001D102B07047019B013BF6E70070044050
:10CC40003810000000A0044000C0044040F00F4035
:10CC5000C0F00F4040420F00034B012801D1586043
:10CC6000704701229A60FBE740F00F4010B5FFF7D4
:10CC7000F3FF10BD73B5394C6568A3689B0201D4FE
:10CC8000374B1D40A3681B0201D4364B1D40802347
:10CC90001B031D4213D0626833490A40134363608B
:10CCA000FEF7FCFE00280AD0304E3000FDF771F888
:10CCB000122804D9132230002D49FDF776F82B02F3
:10CCC0001ED52C4E3000FDF755F88122431E9841A9
:10CCD0002949C0B25200FEF7E9FE3000FDF722F804
:10CCE000E0603000FDF746F8002809D1A3681D4A2E
:10CCF00080211340A360C023204A5B008901D150EA
:10CD0000AB020CD5C023DB021D4209D06946E268A4
:10CD1000D2B2CA71626814490A401343636073BD9A
:10CD2000E668124CF6B22000FDF733F80500132830
:10CD300004D931002000FCF7CDFFF0E7FEF7AEFE8E
:10CD4000002807D0132DEAD12A0020000849FDF75A
:10CD50002CF8E4E72000FCF7E5FFEAE70050054087
:10CD6000FFFFDFFFFFFF7FFF0000E03F34EDFF1F0D
:10CD70007BDD000044EDFF1F4CDD000000E100E022
:10CD8000F7B5334B08251B78DAB201921A002A4016
:10CD900000922B4256D1019BEFF3108072B62D49C1
:10CDA000019A0C6822431A430A6080F310882A49CA
:10CDB00000980A78DBB202430A70254A1370FDF727
:10CDC00049FCF7BD254B1978CB08CAB223400909A5
:10CDD0000B4317D10F27930821492340DB00585CF0
:10CDE00086083E40012E0DD1CE187788002F09D13C
:10CDF0001C4F3F78778040278826384200D1F619AB
:10CE0000CE542243EFF3108772B6174E174B30689B
:10CE100019211A540130FBF7B7FC316087F31088F1
:10CE20000B4B1D70009A2300002A03D1104B1B7876
:10CE30005B092340DBB20093054B1B78DBB22B422E
:10CE4000C0D1A9E700220124019B0092F7E7C04668
:10CE500080200740C0EEFF1FE8EEFF1F9020074034
:10CE600000EEFF1FC4EEFF1FE4EEFF1FCAEEFF1F20
:10CE700094200740FEE7010010B5002802D01320DF
:10CE800000F034FB002010BD80B5EFF30583002BCC
:10CE900006D1EFF31083002B02D1034F00DF80BDDA
:10CEA00006204042FBE7C04677CE0000234B70B51A
:10CEB0005D6904000E00002D39D000283AD00378B7
:10CEC000F52B37D1037E002B0BD10361EB6AC560D4
:10CED0004361002B00D018610123EC62002023760F
:10CEE00070BDC278D10706D5C168A94203D1FF2B16
:10CEF00022D00133F2E7002E1ED093070BD51F225C
:10CF00001F21E0686B1C9A56431C5956914202DA65
:10CF1000DA7700F008FA3100532000F0E7FA002831
:10CF200003D02900200000F0D3F9022000E0012006
:10CF30004042D5E70420FBE70320F9E7D8E1FF1FD3
:10CF40002D4B70B55B690400002B4ED000284FD0EC
:10CF50000278F52A4CD1027E002A4BD0C168994252
:10CF600048D1013AD2B20276002082422DD16269C4
:10CF7000824201D0216911612169002926D04A61CC
:10CF8000E278920707D59A1CD27FD96A52B200295B
:10CF90001ED10133DA77A368002B12D0200000F0F5
:10CFA000ADF900221100050000F05EFA00232361B4
:10CFB000EB6AE5606361002B00D01C610123EC6229
:10CFC0002376002000F022FA002070BDDA62D7E755
:10CFD0008868002807D00130C07F051C40B290420D
:10CFE00000DA151C6AB24969D1E701204042ECE73A
:10CFF0000420FBE70320F9E7D8E1FF1F70B5C378F1
:10D000009B071DD51F22C068831C9A56C46AA3685B
:10D010008B4200D18B68002B07D00133DB7F1D1CB6
:10D020005BB2934200DA151C6AB26469002CEED13F
:10D030001F21431C5956914202D0DA7700F073F950
:10D0400070BD000080B5EFF30583002B06D1EFF330
:10D050001083002B02D1034F00DF80BD0620404229
:10D06000FBE7C046ADCE000080B5EFF30583002B93
:10D0700006D1EFF31083002B02D1034F00DF80BDF8
:10D0800006204042FBE7C04641CF000070B500F0EB
:10D090009BFA1C4CE3680133E360236D002B00D046
:10D0A000984700F05DF9002000F0B0F9236C002BE8
:10D0B00027D0A26BA1698A4202D0A163E36320E07A
:10D0C000E36B002B19D1237A022B1AD1656A002D4C
:10D0D00017D01F216B1C59561F230132D35699427A
:10D0E0000FD1280000F014F9A06B00F02FF92800F0
:10D0F00000F082F9236CA563E0E7013BE363002BBA
:10D10000E1D070BDD8E1FF1FF8B51C4B1D001C001D
:10D1100054355634288872B62288002A04D162B663
:10D12000002000F073F9F8BD1E00013A22805A3643
:10D130003188DF6D8A00013189B2D25988420ED020
:10D14000318062B6002AEBD01078F1380828E1D897
:10D15000FBF780FA07E00BE0E00D0FE01100002183
:10D16000EEE71B6E10009847CFE75B6EFAE79B6E09
:10D17000F8E7DB6EF6E71B6FF4E7C046D8E1FF1F68
:10D180000100F8B5EFF31080164A130054331C88E1
:10D1900072B6150056352B889C421BD901332B8063
:10D1A000150058352B88D76D9E0001339BB2F15185
:10D1B0009C4200D100232B80002800D162B6537A14
:10D1C000002B04D18022084B52055A60F8BD012380
:10D1D0009372FBE7002800D162B60220FFF74AFEF7
:10D1E000F4E7C046D8E1FF1F00ED00E00378F12B23
:10D1F00000D07047C068F9E701231F2110B54370C4
:10D20000C3185956094B0A4A5B6A002B04D05C1CB0
:10D21000E47F64B28C4206DCC26083609060002BC5
:10D2200000D0D86010BD1A009B68EEE7D8E1FF1F60
:10D23000F4E1FF1F70B5030002251000012428400F
:10D2400014402A4214D1EFF3108672B69A6A150080
:10D250000D40002C06D0A94206D1100088439862E8
:10D26000100001E0281EF8D1002E00D162B670BD7A
:10D27000986A0B000340002C03D09942F7D000209D
:10D28000F5E75A1E93415B421840F0E7C26910B5BA
:10D2900003694169541C0CD1002B00D059614269CB
:10D2A000002A03D013610023436101E0074A13639E
:10D2B00010BD002B03D0DC695961A218DA61426904
:10D2C000002AEFD1014AD362F2E7C046D8E1FF1F3E
:10D2D0001F2210B54B1C9A568368002B04D05C1C8F
:10D2E000E47F64B2944206DAC8608B608160002BF0
:10D2F00000D0D96010BD18009B68EEE7030080687D
:10D3000082689A60002A00D0D3600023C36070470F
:10D31000C268002A06D083689360002B00D0DA60D0
:10D320000023C360704770B505000400002C09D0CD
:10D330002378F12B07D02800FFF7EAFF290020000F
:10D34000FFF7C6FF70BDE468F0E70000012310B5E9
:10D35000010043700148FFF7BBFF10BDF4E1FF1F60
:10D36000F8B5194DEC6A002C1ED0E369013BE3616E
:10D37000002B19D1102620276378732B18D014D8CE
:10D38000532B19D0BB43432B12D02000FFF7C0FF13
:10D390002000FFF7DBFF2469002C04D0E369002B99
:10D3A000EAD000236361EC62F8BDB343832BECD178
:10D3B0002000FFF71BFFE8E72000FFF717FF210021
:10D3C000FFF71CFEE1E7C046D8E1FF1F084B10B590
:10D3D000596900290AD00B6B8A6B934203D2054A24
:10D3E0001B68934202D00120FFF744FD10BDC046E8
:10D3F000D8E1FF1FA52E5AE2022310B54370024B5D
:10D400009861FFF7E3FF10BDD8E1FF1F70B5154B22
:10D4100004001A7A5D69002816D1022A13D15C6AC9
:10D42000002C10D0621C6B1CD27FDB7F52B25BB22F
:10D430009A4208DD2000FFF76BFF2800FFF7DCFEB3
:10D440002000FFF7D9FF70BD022A07D1421C6B1CD8
:10D45000D27FDB7F52B25BB29A42EEDC2000FFF754
:10D4600075FFF0E7D8E1FF1F70B50400836B15006E
:10D470001962FFF70BFF2000002D02D0FFF7C6FF57
:10D4800070BDFFF763FFFBE770B505000C000028D7
:10D4900027D00378F12B24D1002922DB4378042BF9
:10D4A00022D0EFF3108372B6826A14438462002B99
:10D4B00000D162B66B78332B11D12E1D696A28001A
:10D4C000F27FFFF7B7FE011E09D0F37F04009B0730
:10D4D00001D46B6A9C4301222800FFF7C5FF20009E
:10D4E00070BD04246442FAE70324FBE770B51E4CC8
:10D4F0000200237A0020022B17D1636A834214D0E2
:10D5000063695A704A1C16D1226B002A0ED1012180
:10D510004942D96158611A6100280AD00361134851
:10D52000FFF7ECFEFFF768FF012070BD10001269E5
:10D53000EBE72363F3E7E26A002A02D0D569A94248
:10D540000CD2D96158611A6100280BD00361002AFE
:10D55000E5D0D0695361411AD161E0E71000491B61
:10D560001269E9E7E362F2E7D8E1FF1FF4E1FF1F88
:10D57000B0B5EFF30583002B03D1EFF31083002B3D
:10D5800016D0002818D00378F12B15D1002913DB11
:10D590004378042B13D0EFF3108372B6846A0C43E4
:10D5A0008462002B00D162B6FFF7EAFD2000B0BD17
:10D5B000044F00DF0400F9E704246442F6E7032483
:10D5C000FBE7C04689D40000014B1B687047C0468A
:10D5D00010E000E080B500AF104B1B69002B18D0A5
:10D5E0000E4B1B69D02252009A5CA221FF315B5C7A
:10D5F0001B0213439BB2002B0BD0084B1B69D0229C
:10D6000052009A5CA221FF315B5C1B0213439BB268
:10D6100001E0024B5B881800BD4680BD64D8000065
:10D6200070B50E4D2C68002C13D1FFF7D3FF2300EB
:10D630000B499A005258541C05D12B68002B08D175
:10D64000084B2B6005E0002A04D01488844201D1E5
:10D650002A6070BD0133DBB2EBE7C046ECEEFF1F82
:10D660007CE2FF1FCCDD000037B5134D04006B6F6B
:10D67000002B00D09847114B1B68181E04D09A69E4
:10D68000002A02D0200090473EBD9A78012A03D19B
:10D690002000FDF725FCF7E70120022AF4D1AA6F4C
:10D6A000101E019202D15868002801D0FDF7A2F89F
:10D6B0002000FDF7CFFCE7E764D80000ECEEFF1F89
:10D6C000094B10B51B68002B04D0DB69002B01D07F
:10D6D000984710BD8022054B5203002801D09A6064
:10D6E000F7E75A60F5E7C046ECEEFF1F00F00F4089
:10D6F000024B1B68181E00D0986A7047ECEEFF1FA3
:10D70000084B10B50400002B02D0002100E000BF40
:10D71000054B1868836A002B00D09847200000F062
:10D7200025F8C0460000000060E0000030B500248D
:10D730000139A24201D1002005E0035D01340D5DF5
:10D74000AB42F6D0581B30BD002310B59A4200D131
:10D7500010BDCC5CC4540133F8E703008218934237
:10D7600000D1704719700133F9E70000FEE7C046A9
:10D7700000D90000E8D80000ECD80000F0D8000084
:10D78000F4D800002E2E2F2E2E2F2E2E2F736F75D5
:10D790007263652F6869635F68616C2F6672656587
:10D7A0007363616C652F6B6C32377A2F66736C5FB5
:10D7B00061646331362E68002E2E2F2E2E2F2E2ED2
:10D7C0002F736F757263652F626F6172642F6D695D
:10D7D00063726F62697476322F6B6C32377A2F66A0
:10D7E0006C6578696F5F70776D2E63002E2E2F2E1B
:10D7F0002E2F2E2E2F736F757263652F626F6172DD
:10D80000642F6D6963726F62697476322F6B6C324C
:10D81000377A2F73746F726167652E630039393000
:10D820003400393930350039393036003939303340
:10D83000004D6963726F3A62697420456475636173
:10D8400074696F6E616C20466F756E646174696F88
:10D850006E00424243206D6963726F3A62697420C0
:10D8600056320000010002360000000000000000F7
:10D870000000000028E0FF1F4D4943524F42495429
:10D8800048544D4D4943524F42495400000068747A
:10D890007470733A2F2F6D6963726F6269742E6FA3
:10D8A00072672F6465766963652F3F69643D404206
:10D8B00026763D40560000000000000000000000F9
:10D8C0000000000000000000000000000000000058
:10D8D00035990000000000000999000000000000D8
:10D8E00031D8000052D80000545854004353560019
:10D8F00048544D00574156004441544120202020B7
:10D9000042494E002E2E2F2E2E2F2E2E2F736F7546
:10D910007263652F6461706C696E6B2F486172640D
:10D920004661756C745F48616E646C65722E63004D
:10D930002E2E2F2E2E2F2E2E2F736F757263652F86
:10D940006461706C696E6B2F636972635F62756688
:10D950002E6300222A2B2C2E2F3A3B3C3D3E3F5B70
:10D960005C5D7C002E2E2F2E2E2F2E2E2F736F758A
:10D970007263652F6461706C696E6B2F696E74657C
:10D9800072666163652F7461726765745F666C614E
:10D9900073682E630000000025B500000DB900007B
:10D9A00011B300006DB8000001B70000E1B800003D
:10D9B000E5B7000051B2000069B6000098D9000038
:10D9C0004E6F7264696353656D69636F6E647563EE
:10D9D000746F72006E524635323834305F78784159
:10D9E00041006E524635323833335F78784141001A
:10D9F0006E524635323833325F78784141006E528C
:10DA00004635323833325F787841420021000020B9
:10DA100025000020290000204D0000207B00002070
:10DA20000000000001000020700100200010002014
:10DA300000020020000000205001000048DA000031
:10DA4000000200000000000000BE0AE00D782D0674
:10DA500068400824400000D35840641EFAD1491C95
:10DA6000521E002AF2D170470020704700207047F4
:10DA700070B52B4C02202060294901200831086034
:10DA8000284D2868C00702D00020206070BD00F03B
:10DA900033F8F6E770B5224C02212160B0F1102F67
:10DAA00003D31F490120103101E01D49091D086001
:10DAB0001C4D00F021F82868C007FAD00020206033
:10DAC00070BD2DE9F041DFF858808E080121144621
:10DAD0000546C8F80010134F01CC01C53868C007CF
:10DAE00007D0761EF8D10021C8F800100846BDE81E
:10DAF000F08100F001F8F1E70B48006810F0FF003A
:10DB00000CD00A490968002908D00849084AFC31A4
:10DB1000C30700D00A60091D4008F9D17047000012
:10DB200004E5014000E40140040401400405014013
:10DB30003546526E0000000000000000001000009A
:10DB40000236020004000000000000000000000097
:10DB5000000000000000000000000000E9BA000022
:10DB60000000000000000000000000002E2E2F2EFC
:10DB70002E2F2E2E2F736F757263652F6869635F6A
:10DB800068616C2F667265657363616C652F6B6C81
:10DB900032377A2F4D4B4C32375A342F66736C5FC5
:10DBA000636C6F636B2E630080841E0000127A002A
:10DBB0002E2E2F2E2E2F2E2E2F736F757263652F04
:10DBC0006869635F68616C2F667265657363616C19
:10DBD000652F6B6C32377A2F66736C5F61646331CB
:10DBE000362E63002E2E2F2E2E2F2E2E2F736F7576
:10DBF0007263652F6869635F68616C2F6672656523
:10DC00007363616C652F6B6C32377A2F66736C5F50
:10DC1000666C6578696F2E63002E2E2F2E2E2F2EA8
:10DC20002E2F736F757263652F6869635F68616C0F
:10DC30002F667265657363616C652F6B6C32377A22
:10DC40002F66736C5F6770696F2E63002E2E2F2E08
:10DC50002E2F2E2E2F736F757263652F6869635F89
:10DC600068616C2F667265657363616C652F6B6CA0
:10DC700032377A2F66736C5F6932635F6D6F642E23
:10DC80006300000006003410070034101400160072
:10DC900018001A001C001E00220028001C00200092
:10DCA000240028002C0030003800440030003800E8
:10DCB000400048005000580068008000500060009C
:10DCC000700080009000A000C000F000A000C00024
:10DCD000E0000001200140018001E00140018001DD
:10DCE000C0010002400280020003C0038002000362
:10DCF000800300048004000500068007000500067C
:10DD0000000700080009000A000C000F08092E2E69
:10DD10002F2E2E2F2E2E2F736F757263652F68692D
:10DD2000635F68616C2F667265657363616C652FF4
:10DD30006B6C32377A2F66736C5F74706D2E630074
:10DD400018003C1019003C101A003C102E2E2F2EEB
:10DD50002E2F2E2E2F736F757263652F6869635F88
:10DD600068616C2F667265657363616C652F6B6C9F
:10DD700032377A2F756172742E63003C4441504CE7
:10DD8000696E6B3A4F766572666C6F773E0A005229
:10DD900054582056352E352E320000000000000069
:10DDA0000000000000000000000000000000000073
:10DDB0000000000000000000000000000000000063
:10DDC0000000000000000000000000000100010051
:10DDD0000000000000000000000000000000000043
