:1000000000F00120B5020000D7020000D702000076
:10001000D7020000D7020000D70200000000000055
:10002000000000000000000000000000D7020000F7
:10003000D702000000000000D7020000D702000035
:10004000D7020000D7020000D7020000D70200004C
:10005000D7020000D7020000D7020000D70200003C
:10006000D7020000D7020000D7020000D70200002C
:10007000D7020000D7020000D7020000D70200001C
:10008000D7020000D7020000D7020000D70200000C
:10009000D7020000D7020000D7020000D7020000FC
:1000A000D7020000D7020000D7020000D7020000EC
:1000B000D7020000D702000000000000000000008E
:1000C000D7020000D7020000D7020000D7020000CC
:1000D000D7020000D7020000D7020000D7020000BC
:1000E000D702000000000000000000000000000037
:1000F00000000000D702000000000000D70200004E
:1001000000000000000000000000000000000000EF
:1001100000000000000000000000000000000000DF
:1001200000000000000000000000000000000000CF
:1001300000000000000000000000000000000000BF
:1001400000000000000000000000000000000000AF
:10015000000000000000000000000000000000009F
:10016000000000000000000000000000000000008F
:10017000000000000000000000000000000000007F
:10018000000000000000000000000000000000006F
:10019000000000000000000000000000000000005F
:1001A000000000000000000000000000000000004F
:1001B000000000000000000000000000000000003F
:1001C000000000000000000000000000000000002F
:1001D000000000000000000000000000000000001F
:1001E000000000000000000000000000000000000F
:1001F00000000000000000000000000000000000FF
:100200004FF0A041D1F814254FF001034FEAC3236A
:1002100042EA03024FEA031342EA03024FEA0213DF
:1002200042EA03024FEA820342EA03024FEA420330
:1002300042EA03024FEA820342EA0302C1F81425AC
:100240000220D1F804254FF001034FEAC33342EAFC
:1002500003024FEA021342EA03024FEA820342EA30
:1002600003024FEA420342EA03024FEA820342EAF0
:1002700003024FEA021342EA03024FEA820342EA10
:1002800003024FEA420342EA0302C1F804250BE0ED
:100290000220D1F804254FF000034FEAC32302EAFD
:1002A0000302C1F8042502E00138FDD1F0E701386E
:1002B000FDD10000DFF824D009480A490A4A8842E3
:1002C00005DA52F8043B40F8043B8842F9DBFFF7BB
:1002D00097FF00BFFDE700BFFFF7FDBF00F0012063
:0C02E0000000002004000020EC020000E0
:0402EC004242420048
:04000003000002B542
:00000001FF
